:100000000C942A000C943F000C943F000C943F0089
:100010000C943F000C943F000C943F000C943F0064
:100020000C943F000C943F000C943F000C943F0054
:100030000C943F000C943F000C943F000C943F0044
:100040000C943F000C943F000C943F000C943F0034
:100050000C943F0011241FBECFE5D8E0DEBFCDBF1A
:1000600010E0A0E6B0E0E2E7F3E002C005900D92F8
:10007000A436B107D9F70E9481000C94B7010C9403
:1000800000000F931F93CF93DF938C01EB010E942D
:100090004401BE01601B710B0E94D000800F911FB4
:1000A000DF91CF911F910F9108950F931F93CF93DD
:1000B000DF938C01EB010E944401BE016F5F7F4F13
:1000C000601B710B0E94D000800F911FDF91CF91B8
:1000D0001F910F91089568E270E080E090E00E9427
:1000E00055008BBB8BB390E008958FEB82BF81E00E
:1000F00083BF08B600FEFDCF13BE81E088BF7894B1
:1001000008958FEF8ABB84BB68E270E080E090E0E6
:100110000E94410068E270E080E090E00E9455009B
:100120000E946B00C0E0D0E037C00E946B008A30B4
:10013000910518F481E085BB17C09C012A50310954
:100140002A30310518F482E085BB0EC09C01245191
:1001500031092A30310518F484E085BB05C04E977B
:100160000A9710F488E085BB0E9475002FEF83ED9D
:1001700090E3215080409040E1F700C0000015BAA4
:100180002FEF83ED90E3215080409040E1F700C0D5
:1001900000000E9475002196C430D10534F2C2CF10
:1001A00097FB072E16F4009407D077FD09D00E9424
:1001B000E40007FC05D03EF4909581959F4F08958B
:1001C000709561957F4F0895AA1BBB1B51E107C035
:1001D000AA1FBB1FA617B70710F0A61BB70B881FD7
:1001E000991F5A95A9F780959095BC01CD01089566
:1001F0008F929F92AF92BF92CF92DF92EF92FF9237
:10020000CF93DF93EC01688179818A819B816115AD
:1002100071058105910521F464E279ED8BE597E0A4
:100220002DE133EF41E050E00E94540149015A01B1
:100230009B01AC01A7EAB1E40E9473016B017C0150
:10024000ACEEB4EFA50194010E948101DC01CB0169
:100250008C0D9D1DAE1DBF1DB7FF03C00197A109E9
:10026000B04888839983AA83BB839F77DF91CF911E
:10027000FF90EF90DF90CF90BF90AF909F908F90C6
:1002800008950E94F800089580E690E00E94F8002A
:100290000895A0E0B0E08093600090936100A09387
:1002A0006200B09363000895052E97FB1EF400943E
:1002B0000E946B0157FD07D00E94860107FC03D006
:1002C0004EF40C946B0150954095309521953F4F1D
:1002D0004F4F5F4F089590958095709561957F4F32
:1002E0008F4F9F4F08950E94A801A59F900DB49F26
:1002F000900DA49F800D911D11240895B7FF0C94BB
:1003000073010E947301821B930B0895A1E21A2EC0
:10031000AA1BBB1BFD010DC0AA1FBB1FEE1FFF1FA9
:10032000A217B307E407F50720F0A21BB30BE40BF9
:10033000F50B661F771F881F991F1A9469F7609540
:100340007095809590959B01AC01BD01CF010895FA
:10035000A29FB001B39FC001A39F700D811D112406
:10036000911DB29F700D811D1124911D0895F89467
:02037000FFCFBD
:040372000100000086
:00000001FF
